{
  "transactions": [
    {
      "hash": "0x26010c4953f5174e72ae38d4c6f5e05d5d9a60d04afe8b85b9ddd2eba9ccbbf8",
      "transactionType": "CALL",
      "contractName": null,
      "contractAddress": "0x5dc50f5adb4c746efdf8f3e685e76540445af26a",
      "function": "createTransaction(address,uint256,bytes,address,(address,address,uint256,uint32,uint32)[])",
      "arguments": [
        "0x4Ff6d608f41c53DB6cf189648B843f5F4cb545d1",
        "0",
        "0xd09de08a",
        "0x37d9Bcb63118cbD2cdE1d0E24379a876d687738A",
        "[(0x4200000000000000000000000000000000000006, 0xfFf9976782d46CC05630D1f6eBAb18b2324d6B14, 100000000000000, 0, 84532)]"
      ],
      "transaction": {
        "from": "0x1726cf86da996bc4b2f393e713f6f8ef83f2e4f6",
        "to": "0x5dc50f5adb4c746efdf8f3e685e76540445af26a",
        "gas": "0x480a2",
        "value": "0x0",
        "input": "0x04afc8800000000000000000000000004ff6d608f41c53db6cf189648b843f5f4cb545d1000000000000000000000000000000000000000000000000000000000000000000000000000000000000000000000000000000000000000000000000000000a000000000000000000000000037d9bcb63118cbd2cde1d0e24379a876d687738a00000000000000000000000000000000000000000000000000000000000000e00000000000000000000000000000000000000000000000000000000000000004d09de08a0000000000000000000000000000000000000000000000000000000000000000000000000000000000000000000000000000000000000000000000010000000000000000000000004200000000000000000000000000000000000006000000000000000000000000fff9976782d46cc05630d1f6ebab18b2324d6b1400000000000000000000000000000000000000000000000000005af3107a400000000000000000000000000000000000000000000000000000000000000000000000000000000000000000000000000000000000000000000000000000014a34",
        "nonce": "0x307",
        "chainId": "0xaa36a7"
      },
      "additionalContracts": [],
      "isFixedGasLimit": false
    }
  ],
  "receipts": [
    {
      "status": "0x1",
      "cumulativeGasUsed": "0x1c2b7b9",
      "logs": [
        {
          "address": "0x5dc50f5adb4c746efdf8f3e685e76540445af26a",
          "topics": [
            "0x3e4711c17e89074bd60399c19750a8dd41dcd2b694a80143c07842ef2055e3b5",
            "0x0000000000000000000000001726cf86da996bc4b2f393e713f6f8ef83f2e4f6",
            "0x0000000000000000000000004ff6d608f41c53db6cf189648b843f5f4cb545d1"
          ],
          "data": "0x0000000000000000000000000000000000000000000000000000000000000000000000000000000000000000000000000000000000000000000000000000006000000000000000000000000000000000000000000000000000000000000000010000000000000000000000000000000000000000000000000000000000000004d09de08a00000000000000000000000000000000000000000000000000000000",
          "blockHash": "0xc07c19a825c1d6769b5f74b3e9676f02ebe317180002f0642d86e915f9b1dbaa",
          "blockNumber": "0x6c2b0b",
          "transactionHash": "0x26010c4953f5174e72ae38d4c6f5e05d5d9a60d04afe8b85b9ddd2eba9ccbbf8",
          "transactionIndex": "0x98",
          "logIndex": "0x14a",
          "removed": false
        }
      ],
      "logsBloom": "0x00000000000000000000000000000000000000000000000008000010000000000000000000000000000000000000000000000000000010000000000000000000000000000000000000000000000800000000000000000000000000000400000000000000000000000000c00000000000000000000000000000000000000000000000000000000002000000000000000000000000000000000000000000000000000000000000000000000000000000000000002000000000000000000000000000000000000000000000000000000000000000000000000000000000800000000080000000000000000000000002000000000000000000000000000000000000",
      "type": "0x2",
      "transactionHash": "0x26010c4953f5174e72ae38d4c6f5e05d5d9a60d04afe8b85b9ddd2eba9ccbbf8",
      "transactionIndex": "0x98",
      "blockHash": "0xc07c19a825c1d6769b5f74b3e9676f02ebe317180002f0642d86e915f9b1dbaa",
      "blockNumber": "0x6c2b0b",
      "gasUsed": "0x3427d",
      "effectiveGasPrice": "0x32637e37",
      "from": "0x1726cf86da996bc4b2f393e713f6f8ef83f2e4f6",
      "to": "0x5dc50f5adb4c746efdf8f3e685e76540445af26a",
      "contractAddress": null
    }
  ],
  "libraries": [],
  "pending": [],
  "returns": {},
  "timestamp": 1731761956,
  "chain": 11155111,
  "commit": "374a736"
}