{
  "transactions": [
    {
      "hash": "0xd006b6cb2e213b389f59ccbce54f356743f673aeef5012bd38e7bac824fc225b",
      "transactionType": "CALL",
      "contractName": null,
      "contractAddress": "0xb20405f94d4a34439ad894789a136dfd1032f22c",
      "function": "createTransaction(address,uint256,bytes,address,(address,address,uint256,uint32,uint32)[])",
      "arguments": [
        "0x4Ff6d608f41c53DB6cf189648B843f5F4cb545d1",
        "0",
        "0xd09de08a",
        "0x37d9Bcb63118cbD2cdE1d0E24379a876d687738A",
        "[(0x4200000000000000000000000000000000000006, 0xfFf9976782d46CC05630D1f6eBAb18b2324d6B14, 100000000000000, 40161, 84532)]"
      ],
      "transaction": {
        "from": "0x1726cf86da996bc4b2f393e713f6f8ef83f2e4f6",
        "to": "0xb20405f94d4a34439ad894789a136dfd1032f22c",
        "gas": "0x4e0d9",
        "value": "0x0",
        "input": "0x04afc8800000000000000000000000004ff6d608f41c53db6cf189648b843f5f4cb545d1000000000000000000000000000000000000000000000000000000000000000000000000000000000000000000000000000000000000000000000000000000a000000000000000000000000037d9bcb63118cbd2cde1d0e24379a876d687738a00000000000000000000000000000000000000000000000000000000000000e00000000000000000000000000000000000000000000000000000000000000004d09de08a0000000000000000000000000000000000000000000000000000000000000000000000000000000000000000000000000000000000000000000000010000000000000000000000004200000000000000000000000000000000000006000000000000000000000000fff9976782d46cc05630d1f6ebab18b2324d6b1400000000000000000000000000000000000000000000000000005af3107a40000000000000000000000000000000000000000000000000000000000000009ce10000000000000000000000000000000000000000000000000000000000014a34",
        "nonce": "0xde",
        "chainId": "0x14a34"
      },
      "additionalContracts": [],
      "isFixedGasLimit": false
    }
  ],
  "receipts": [
    {
      "status": "0x1",
      "cumulativeGasUsed": "0x17cf54",
      "logs": [
        {
          "address": "0xb20405f94d4a34439ad894789a136dfd1032f22c",
          "topics": [
            "0x3e4711c17e89074bd60399c19750a8dd41dcd2b694a80143c07842ef2055e3b5",
            "0x0000000000000000000000001726cf86da996bc4b2f393e713f6f8ef83f2e4f6",
            "0x0000000000000000000000004ff6d608f41c53db6cf189648b843f5f4cb545d1"
          ],
          "data": "0x0000000000000000000000000000000000000000000000000000000000000000000000000000000000000000000000000000000000000000000000000000006000000000000000000000000000000000000000000000000000000000000000000000000000000000000000000000000000000000000000000000000000000004d09de08a00000000000000000000000000000000000000000000000000000000",
          "blockHash": "0xbbbbfe75e7593cc640e84b0bcf00649b496ab028e70b89cbd4a2438e2573b003",
          "blockNumber": "0x112cef1",
          "transactionHash": "0xd006b6cb2e213b389f59ccbce54f356743f673aeef5012bd38e7bac824fc225b",
          "transactionIndex": "0xf",
          "logIndex": "0x1c",
          "removed": false
        }
      ],
      "logsBloom": "0x00000000000000000000000000000000000000000000000008000000000000000000000000000020000000000000000000000000000010000000000000000000000000000000000000000002000800000000000000000000000000000400000000000000000000000000c00000000000000000000000000000000000000000000000000000000002000000000000000000000000000000000000100000000000000000000000000000000000000000000000000000000000000000000000000000000000000000000000000000000000000000000000000000000000800000000000000000000000000000000002000000000000000000000000000000000000",
      "type": "0x2",
      "transactionHash": "0xd006b6cb2e213b389f59ccbce54f356743f673aeef5012bd38e7bac824fc225b",
      "transactionIndex": "0xf",
      "blockHash": "0xbbbbfe75e7593cc640e84b0bcf00649b496ab028e70b89cbd4a2438e2573b003",
      "blockNumber": "0x112cef1",
      "gasUsed": "0x38825",
      "effectiveGasPrice": "0xf4340",
      "from": "0x1726cf86da996bc4b2f393e713f6f8ef83f2e4f6",
      "to": "0xb20405f94d4a34439ad894789a136dfd1032f22c",
      "contractAddress": null,
      "l1BaseFeeScalar": "0x44d",
      "l1BlobBaseFee": "0x1",
      "l1BlobBaseFeeScalar": "0xa118b",
      "l1Fee": "0x14db54d6",
      "l1GasPrice": "0x65f7c1d",
      "l1GasUsed": "0xb9c"
    }
  ],
  "libraries": [],
  "pending": [],
  "returns": {},
  "timestamp": 1731787976,
  "chain": 84532,
  "commit": "412a0a5"
}