{
  "transactions": [
    {
      "hash": "0xb6bedb0063c7cea4daf528bab40b4086948e712cd4504e898a2e8ea632bb05e4",
      "transactionType": "CALL",
      "contractName": null,
      "contractAddress": "0xe6f867e993832e0432bacd4069529d0c76f5f274",
      "function": "createTransaction(address,uint256,bytes,address,(address,address,uint256,uint32,uint32)[])",
      "arguments": [
        "0x4Ff6d608f41c53DB6cf189648B843f5F4cb545d1",
        "0",
        "0xd09de08a",
        "0x37d9Bcb63118cbD2cdE1d0E24379a876d687738A",
        "[(0x4200000000000000000000000000000000000006, 0xfFf9976782d46CC05630D1f6eBAb18b2324d6B14, 100000000000000, 40161, 84532)]"
      ],
      "transaction": {
        "from": "0x1726cf86da996bc4b2f393e713f6f8ef83f2e4f6",
        "to": "0xe6f867e993832e0432bacd4069529d0c76f5f274",
        "gas": "0x480c3",
        "value": "0x0",
        "input": "0x04afc8800000000000000000000000004ff6d608f41c53db6cf189648b843f5f4cb545d1000000000000000000000000000000000000000000000000000000000000000000000000000000000000000000000000000000000000000000000000000000a000000000000000000000000037d9bcb63118cbd2cde1d0e24379a876d687738a00000000000000000000000000000000000000000000000000000000000000e00000000000000000000000000000000000000000000000000000000000000004d09de08a0000000000000000000000000000000000000000000000000000000000000000000000000000000000000000000000000000000000000000000000010000000000000000000000004200000000000000000000000000000000000006000000000000000000000000fff9976782d46cc05630d1f6ebab18b2324d6b1400000000000000000000000000000000000000000000000000005af3107a40000000000000000000000000000000000000000000000000000000000000009ce10000000000000000000000000000000000000000000000000000000000014a34",
        "nonce": "0xd5",
        "chainId": "0x14a34"
      },
      "additionalContracts": [],
      "isFixedGasLimit": false
    }
  ],
  "receipts": [
    {
      "status": "0x1",
      "cumulativeGasUsed": "0xb1efd",
      "logs": [
        {
          "address": "0xe6f867e993832e0432bacd4069529d0c76f5f274",
          "topics": [
            "0x3e4711c17e89074bd60399c19750a8dd41dcd2b694a80143c07842ef2055e3b5",
            "0x0000000000000000000000001726cf86da996bc4b2f393e713f6f8ef83f2e4f6",
            "0x0000000000000000000000004ff6d608f41c53db6cf189648b843f5f4cb545d1"
          ],
          "data": "0x0000000000000000000000000000000000000000000000000000000000000000000000000000000000000000000000000000000000000000000000000000006000000000000000000000000000000000000000000000000000000000000000030000000000000000000000000000000000000000000000000000000000000004d09de08a00000000000000000000000000000000000000000000000000000000",
          "blockHash": "0xa2575ff4b06c289ba859ef32e6d3ac2d24a989295b9eef25bc564ca7dd403842",
          "blockNumber": "0x112ae0e",
          "transactionHash": "0xb6bedb0063c7cea4daf528bab40b4086948e712cd4504e898a2e8ea632bb05e4",
          "transactionIndex": "0x7",
          "logIndex": "0xa",
          "removed": false
        }
      ],
      "logsBloom": "0x00000000000000000000000000000000000000000000010008000000000000000000000000000000000000000000000000000000000010000000000000000000000000000000000000000000000800000000000000000000000000000400000000000000000000000000c00000000000000000000000000000000000000000000000000000000002000000000000000000000000000000000000000000000000000008000000800000000000000000000000000000000000000000000000000000000000000000000000000000000000000000000000000000000000800000000000000000000000000000000002000000000000000000000000000000000000",
      "type": "0x2",
      "transactionHash": "0xb6bedb0063c7cea4daf528bab40b4086948e712cd4504e898a2e8ea632bb05e4",
      "transactionIndex": "0x7",
      "blockHash": "0xa2575ff4b06c289ba859ef32e6d3ac2d24a989295b9eef25bc564ca7dd403842",
      "blockNumber": "0x112ae0e",
      "gasUsed": "0x34295",
      "effectiveGasPrice": "0x6950",
      "from": "0x1726cf86da996bc4b2f393e713f6f8ef83f2e4f6",
      "to": "0xe6f867e993832e0432bacd4069529d0c76f5f274",
      "contractAddress": null,
      "l1BaseFeeScalar": "0x44d",
      "l1BlobBaseFee": "0x1",
      "l1BlobBaseFeeScalar": "0xa118b",
      "l1Fee": "0x8a009522",
      "l1GasPrice": "0x2a8d179f",
      "l1GasUsed": "0xb81"
    }
  ],
  "libraries": [],
  "pending": [],
  "returns": {},
  "timestamp": 1731771132,
  "chain": 84532,
  "commit": "665624a"
}